{
  "contractName": "List",
  "abi": [
    {
      "constant": true,
      "inputs": [
        {
          "name": "",
          "type": "uint256"
        }
      ],
      "name": "articles",
      "outputs": [
        {
          "name": "id",
          "type": "uint256"
        },
        {
          "name": "seller",
          "type": "address"
        },
        {
          "name": "buyer",
          "type": "address"
        },
        {
          "name": "name",
          "type": "string"
        },
        {
          "name": "description",
          "type": "string"
        },
        {
          "name": "price",
          "type": "uint256"
        }
      ],
      "payable": false,
      "stateMutability": "view",
      "type": "function"
    },
    {
      "anonymous": false,
      "inputs": [
        {
          "indexed": true,
          "name": "_id",
          "type": "uint256"
        },
        {
          "indexed": true,
          "name": "_seller",
          "type": "address"
        },
        {
          "indexed": false,
          "name": "_name",
          "type": "string"
        },
        {
          "indexed": false,
          "name": "_price",
          "type": "uint256"
        }
      ],
      "name": "LogSellArticle",
      "type": "event"
    },
    {
      "anonymous": false,
      "inputs": [
        {
          "indexed": true,
          "name": "_id",
          "type": "uint256"
        },
        {
          "indexed": true,
          "name": "_seller",
          "type": "address"
        },
        {
          "indexed": true,
          "name": "_buyer",
          "type": "address"
        },
        {
          "indexed": false,
          "name": "_name",
          "type": "string"
        },
        {
          "indexed": false,
          "name": "_price",
          "type": "uint256"
        }
      ],
      "name": "LogBuyArticle",
      "type": "event"
    },
    {
      "constant": false,
      "inputs": [],
      "name": "kill",
      "outputs": [],
      "payable": false,
      "stateMutability": "nonpayable",
      "type": "function"
    },
    {
      "constant": true,
      "inputs": [],
      "name": "getNumberOfArticles",
      "outputs": [
        {
          "name": "",
          "type": "uint256"
        }
      ],
      "payable": false,
      "stateMutability": "view",
      "type": "function"
    },
    {
      "constant": true,
      "inputs": [],
      "name": "getArticlesForSale",
      "outputs": [
        {
          "name": "",
          "type": "uint256[]"
        }
      ],
      "payable": false,
      "stateMutability": "view",
      "type": "function"
    },
    {
      "constant": false,
      "inputs": [
        {
          "name": "_name",
          "type": "string"
        },
        {
          "name": "_description",
          "type": "string"
        },
        {
          "name": "_price",
          "type": "uint256"
        }
      ],
      "name": "sellArticle",
      "outputs": [],
      "payable": false,
      "stateMutability": "nonpayable",
      "type": "function"
    },
    {
      "constant": false,
      "inputs": [
        {
          "name": "_id",
          "type": "uint256"
        }
      ],
      "name": "buyArticle",
      "outputs": [],
      "payable": true,
      "stateMutability": "payable",
      "type": "function"
    }
  ],
  "bytecode": "0x6060604052336000806101000a81548173ffffffffffffffffffffffffffffffffffffffff021916908373ffffffffffffffffffffffffffffffffffffffff160217905550610c11806100536000396000f300606060405260043610610078576000357c0100000000000000000000000000000000000000000000000000000000900463ffffffff1680631cc4baa81461007d57806341c0e1b5146100955780637f6be3da146100aa57806389da85d314610114578063d26095151461013d578063edcfafe6146101e6575b600080fd5b610093600480803590602001909190505061039c565b005b34156100a057600080fd5b6100a8610684565b005b34156100b557600080fd5b6100bd610719565b6040518080602001828103825283818151815260200191508051906020019060200280838360005b838110156101005780820151818401526020810190506100e5565b505050509050019250505060405180910390f35b341561011f57600080fd5b610127610882565b6040518082815260200191505060405180910390f35b341561014857600080fd5b6101e4600480803590602001908201803590602001908080601f0160208091040260200160405190810160405280939291908181526020018383808284378201915050505050509190803590602001908201803590602001908080601f0160208091040260200160405190810160405280939291908181526020018383808284378201915050505050509190803590602001909190505061088c565b005b34156101f157600080fd5b6102076004808035906020019091905050610ab2565b604051808781526020018673ffffffffffffffffffffffffffffffffffffffff1673ffffffffffffffffffffffffffffffffffffffff1681526020018573ffffffffffffffffffffffffffffffffffffffff1673ffffffffffffffffffffffffffffffffffffffff16815260200180602001806020018481526020018381038352868181546001816001161561010002031660029004815260200191508054600181600116156101000203166002900480156103045780601f106102d957610100808354040283529160200191610304565b820191906000526020600020905b8154815290600101906020018083116102e757829003601f168201915b50508381038252858181546001816001161561010002031660029004815260200191508054600181600116156101000203166002900480156103875780601f1061035c57610100808354040283529160200191610387565b820191906000526020600020905b81548152906001019060200180831161036a57829003601f168201915b50509850505050505050505060405180910390f35b6000806002541115156103ae57600080fd5b6000821180156103c057506002548211155b15156103cb57600080fd5b60016000838152602001908152602001600020905060008160020160009054906101000a900473ffffffffffffffffffffffffffffffffffffffff1673ffffffffffffffffffffffffffffffffffffffff1614151561042957600080fd5b8060010160009054906101000a900473ffffffffffffffffffffffffffffffffffffffff1673ffffffffffffffffffffffffffffffffffffffff163373ffffffffffffffffffffffffffffffffffffffff161415151561048857600080fd5b80600501543414151561049a57600080fd5b338160020160006101000a81548173ffffffffffffffffffffffffffffffffffffffff021916908373ffffffffffffffffffffffffffffffffffffffff1602179055508060010160009054906101000a900473ffffffffffffffffffffffffffffffffffffffff1673ffffffffffffffffffffffffffffffffffffffff166108fc349081150290604051600060405180830381858888f19350505050151561054157600080fd5b8060020160009054906101000a900473ffffffffffffffffffffffffffffffffffffffff1673ffffffffffffffffffffffffffffffffffffffff168160010160009054906101000a900473ffffffffffffffffffffffffffffffffffffffff1673ffffffffffffffffffffffffffffffffffffffff16837f5d28bc06e6f0c45405abfe77bd77236c767f9bd9d044ae2d954a415a2b4823e084600301856005015460405180806020018381526020018281038252848181546001816001161561010002031660029004815260200191508054600181600116156101000203166002900480156106715780601f1061064657610100808354040283529160200191610671565b820191906000526020600020905b81548152906001019060200180831161065457829003601f168201915b5050935050505060405180910390a45050565b6000809054906101000a900473ffffffffffffffffffffffffffffffffffffffff1673ffffffffffffffffffffffffffffffffffffffff163373ffffffffffffffffffffffffffffffffffffffff161415156106df57600080fd5b6000809054906101000a900473ffffffffffffffffffffffffffffffffffffffff1673ffffffffffffffffffffffffffffffffffffffff16ff5b610721610b2c565b610729610b2c565b600080610734610b2c565b6002546040518059106107445750595b9080825280602002602001820160405250935060009250600191505b600254821115156108095760006001600084815260200190815260200160002060020160009054906101000a900473ffffffffffffffffffffffffffffffffffffffff1673ffffffffffffffffffffffffffffffffffffffff1614156107fc57600160008381526020019081526020016000206000015484848151811015156107e557fe5b906020019060200201818152505082806001019350505b8180600101925050610760565b826040518059106108175750595b90808252806020026020018201604052509050600091505b8282101561087857838281518110151561084557fe5b90602001906020020151818381518110151561085d57fe5b9060200190602002018181525050818060010192505061082f565b8094505050505090565b6000600254905090565b60026000815480929190600101919050555060c06040519081016040528060025481526020013373ffffffffffffffffffffffffffffffffffffffff168152602001600073ffffffffffffffffffffffffffffffffffffffff168152602001848152602001838152602001828152506001600060025481526020019081526020016000206000820151816000015560208201518160010160006101000a81548173ffffffffffffffffffffffffffffffffffffffff021916908373ffffffffffffffffffffffffffffffffffffffff16021790555060408201518160020160006101000a81548173ffffffffffffffffffffffffffffffffffffffff021916908373ffffffffffffffffffffffffffffffffffffffff16021790555060608201518160030190805190602001906109c4929190610b40565b5060808201518160040190805190602001906109e1929190610b40565b5060a082015181600501559050503373ffffffffffffffffffffffffffffffffffffffff166002547fe2ebb0c522a8b90a93f45a5dfd3c0e0516b81519fdf199efe51c474642fe8cec85846040518080602001838152602001828103825284818151815260200191508051906020019080838360005b83811015610a72578082015181840152602081019050610a57565b50505050905090810190601f168015610a9f5780820380516001836020036101000a031916815260200191505b50935050505060405180910390a3505050565b60016020528060005260406000206000915090508060000154908060010160009054906101000a900473ffffffffffffffffffffffffffffffffffffffff16908060020160009054906101000a900473ffffffffffffffffffffffffffffffffffffffff1690806003019080600401908060050154905086565b602060405190810160405280600081525090565b828054600181600116156101000203166002900490600052602060002090601f016020900481019282601f10610b8157805160ff1916838001178555610baf565b82800160010185558215610baf579182015b82811115610bae578251825591602001919060010190610b93565b5b509050610bbc9190610bc0565b5090565b610be291905b80821115610bde576000816000905550600101610bc6565b5090565b905600a165627a7a72305820cef9b07cd44898177e7295196ca286fca044e2c39fe28ccc5f4d28d3ad7f800a0029",
  "source": "pragma solidity ^0.4.18;\r\n\r\nimport \"./Ownable.sol\";\r\n\r\n// This contract inherits from Ownable contract, in this case only List contract is deployed to the blockchain, but inherits code functionality from its parent\r\ncontract List is Ownable {\r\n  // Custom types\r\n  struct Article {\r\n    uint id; // uint is uint256\r\n    address seller;\r\n    address buyer;\r\n    string name;\r\n    string description;\r\n    uint256 price;\r\n  }\r\n\r\n  // State variables\r\n  mapping (uint => Article) public articles;\r\n  uint articleCounter;\r\n\r\n  // Events\r\n  // Indexed means that we can filder events specifically for seller or buyer\r\n  event LogSellArticle(uint indexed _id, address indexed _seller, string _name, uint256 _price);\r\n  event LogBuyArticle(uint indexed _id, address indexed _seller, address indexed _buyer, string _name, uint256 _price);\r\n\r\n  // Contract deactivation\r\n  function kill() public onlyOwner {\r\n    // Only contract owner will be able to call this function thanks to modifier onlyOwner() in Ownable contract\r\n    selfdestruct(owner); // Refunds all reamining funds on this contract to the owner\r\n  }\r\n\r\n  function getNumberOfArticles() public view returns (uint) {\r\n    return articleCounter;\r\n  }\r\n\r\n  function getArticlesForSale() public view returns(uint[]) {\r\n    // Prepare outpupt array\r\n    uint[] memory articleIDs = new uint[](articleCounter); // By default complex types like arrays, structs, etc. are stored in storage which is much more expensive than in memory\r\n\r\n    uint numberOfArticlesForSale = 0;\r\n\r\n    for (uint i = 1; i <= articleCounter; i++) {\r\n      // Keep the ID if article is stil for sale\r\n      if (articles[i].buyer == 0x0) {\r\n        articleIDs[numberOfArticlesForSale] = articles[i].id; // Also may be ... = i;\r\n        numberOfArticlesForSale++;\r\n      }\r\n    }\r\n\r\n    // Copy articleIDs array to new smaller array which only contains articles for sale\r\n    uint[] memory forSale = new uint[](numberOfArticlesForSale);\r\n    for (i = 0; i < numberOfArticlesForSale; i++) {\r\n      forSale[i] = articleIDs[i];\r\n    }\r\n\r\n    return forSale;\r\n  }\r\n\r\n  /* OLD\r\n  function getArticle() public view returns (address _seller, address _buyer, string _name, string _description, uint256 _price) {\r\n    return (seller, buyer, name, description, price);\r\n  }*/\r\n\r\n  function sellArticle(string _name, string _description, uint256 _price) public {\r\n    /* OLD\r\n    seller = msg.sender;\r\n    name = _name;\r\n    description = _description;\r\n    price = _price;*/\r\n\r\n    // Storing article\r\n    articleCounter++;\r\n    articles[articleCounter] = Article(articleCounter, msg.sender, 0x0, _name, _description, _price);\r\n\r\n    LogSellArticle(articleCounter, msg.sender, _name, _price);\r\n  }\r\n\r\n  function buyArticle(uint _id) payable public {\r\n    // Checking wheter there is article for sale\r\n    require(articleCounter > 0);\r\n\r\n    // Checking if article really exists\r\n    require(_id > 0 && _id <= articleCounter);\r\n\r\n    // Retrieving article from the mapping\r\n    Article storage article = articles[_id]; // storage means that all modifications to this field remains stored in contract\r\n\r\n    // Checking that the article has not been sold yet\r\n    require(article.buyer == 0x0);\r\n\r\n    // We don't allow seller to buy his own article\r\n    require(msg.sender != article.seller);\r\n\r\n    // Check that value sent is the same as article price\r\n    require(msg.value == article.price);\r\n\r\n    // Keep info of the buyer, it is better to save buyer before sending payment\r\n    article.buyer = msg.sender;\r\n\r\n    // Buyer can pay the seller\r\n    article.seller.transfer(msg.value);\r\n\r\n    // Triggering the event\r\n    LogBuyArticle(_id, article.seller, article.buyer, article.name, article.price);\r\n  }\r\n}\r\n",
  "sourcePath": "C:\\Users\\AdamJ\\ETHTest\\Training\\List\\contracts\\List.sol",
  "compiler": {
    "name": "solc",
    "version": "0.4.19+commit.c4cbbb05.Emscripten.clang"
  },
  "schemaVersion": "2.0.0",
  "updatedAt": "2019-08-04T21:59:00.723Z"
}